{
  "transactions": [
    {
      "hash": "0x73c5833ad93737509f4be205a1c7987d44b316163a2c1be6d6a7006408436766",
      "transactionType": "CALL",
      "contractName": "Drops",
      "contractAddress": "0x208D1008fA508414B6DC63738Bc8560A12Ef5279",
      "function": "drop(uint256,address[])",
      "arguments": [
        "1",
        "[0x469EB9C0990C68Baf0BFf3bDFB0e8aa1724695cD]"
      ],
      "transaction": {
        "type": "0x02",
        "from": "0xd633d5bc9fd1250ac203de798508340dfa989b6b",
        "to": "0x208d1008fa508414b6dc63738bc8560a12ef5279",
        "gas": "0x17466",
        "value": "0x0",
        "data": "0x9f390a36000000000000000000000000000000000000000000000000000000000000000100000000000000000000000000000000000000000000000000000000000000400000000000000000000000000000000000000000000000000000000000000001000000000000000000000000469eb9c0990c68baf0bff3bdfb0e8aa1724695cd",
        "nonce": "0x17",
        "accessList": []
      },
      "additionalContracts": []
    }
  ],
  "receipts": [
    {
      "transactionHash": "0x73c5833ad93737509f4be205a1c7987d44b316163a2c1be6d6a7006408436766",
      "transactionIndex": "0x39",
      "blockHash": "0x83380e26cfe2a3ccba94c5dc976e09aced7f2ca004f185ff5c75b3aa2136b201",
      "blockNumber": "0xf09b58",
      "from": "0xD633d5bc9Fd1250aC203dE798508340dFA989B6B",
      "to": "0x208D1008fA508414B6DC63738Bc8560A12Ef5279",
      "cumulativeGasUsed": "0x39ac50",
      "gasUsed": "0xfea2",
      "contractAddress": null,
      "logs": [
        {
          "address": "0x208D1008fA508414B6DC63738Bc8560A12Ef5279",
          "topics": [
            "0xc3d58168c5ae7397731d063d5bbf3d657854427343f4c083240f7aacaa2d0f62",
            "0x000000000000000000000000d633d5bc9fd1250ac203de798508340dfa989b6b",
            "0x0000000000000000000000000000000000000000000000000000000000000000",
            "0x000000000000000000000000469eb9c0990c68baf0bff3bdfb0e8aa1724695cd"
          ],
          "data": "0x00000000000000000000000000000000000000000000000000000000000000010000000000000000000000000000000000000000000000000000000000000001",
          "blockHash": "0x83380e26cfe2a3ccba94c5dc976e09aced7f2ca004f185ff5c75b3aa2136b201",
          "blockNumber": "0xf09b58",
          "transactionHash": "0x73c5833ad93737509f4be205a1c7987d44b316163a2c1be6d6a7006408436766",
          "transactionIndex": "0x39",
          "logIndex": "0x3e",
          "removed": false
        },
        {
          "address": "0x208D1008fA508414B6DC63738Bc8560A12Ef5279",
          "topics": [
            "0x95a00f343edb771ffa3d5bda50afe8c6354c35baae5ab282c4d27b38271c561d",
            "0x0000000000000000000000000000000000000000000000000000000000000001"
          ],
          "data": "0x",
          "blockHash": "0x83380e26cfe2a3ccba94c5dc976e09aced7f2ca004f185ff5c75b3aa2136b201",
          "blockNumber": "0xf09b58",
          "transactionHash": "0x73c5833ad93737509f4be205a1c7987d44b316163a2c1be6d6a7006408436766",
          "transactionIndex": "0x39",
          "logIndex": "0x3f",
          "removed": false
        }
      ],
      "status": "0x1",
      "logsBloom": "0x00000000000000000000000000000000000000000000000000000000080000000000000000000000000000000000000000000000000000000000000000042004000002000000000000000000000000000000010000040000000000000008001000000000020000000000000000000800000000000000000000000000000000000000000000040000000000000000000000000000000000080000000000000000000000000000000000000000000010000000000000000000000000000000000000000000000000000000000000000000000000000008000000000000000060000000000000000000000000000000001100000000000000000000080000008000",
      "type": "0x2",
      "effectiveGasPrice": "0x6d381d268"
    }
  ],
  "libraries": [],
  "pending": [],
  "path": "/Users/sam/Code/sks-drops/packages/contracts/broadcast/Drop.s.sol/1/run-latest.json",
  "returns": {},
  "timestamp": 1666016765,
  "commit": "202ad1d"
}